:1000000000000120D1060000F9060000FB060000F8
:10001000FD060000FF0600000107000000000000D0
:1000200000000000000000000000000003070000C6
:100030000507000000000000070700000907000096
:100040000B0700000B070000310300000B07000046
:100050000B0700000B0700000B0700000B07000058
:100060000B0700000B0700000B0700000B07000048
:100070000B0700000B0700000B0700000B07000038
:100080000B0700000B0700000B0700000B07000028
:100090000B0700000B0700000B0700000B07000018
:1000A0000B0700000B0700000B0700000B07000008
:1000B0000B0700000B07000000000000000000001C
:1000C0000B0700000B0700000B0700000B070000E8
:1000D0000B0700000B0700000B07000000000000EA
:1000E0000000000000000000000000000000000010
:1000F0000000000000000000000000000000000000
:1001000000000000000000000000000000000000EF
:1001100000000000000000000000000000000000DF
:1001200000000000000000000000000000000000CF
:1001300000000000000000000000000000000000BF
:1001400000000000000000000000000000000000AF
:10015000000000000000000000000000000000009F
:10016000000000000000000000000000000000008F
:10017000000000000000000000000000000000007F
:10018000000000000000000000000000000000006F
:10019000000000000000000000000000000000005F
:1001A000000000000000000000000000000000004F
:1001B000000000000000000000000000000000003F
:1001C000000000000000000000000000000000002F
:1001D000000000000000000000000000000000001F
:1001E000000000000000000000000000000000000F
:1001F00000000000000000000000000000000000FF
:1002000010B5054C237833B9044B13B10448AFF350
:1002100000800123237010BD70000020000000004A
:100220003C0B0000084B10B51BB108480849AFF360
:1002300000800848036803B910BD074B002BFBD0B2
:10024000BDE81040184700BF000000003C0B000054
:10025000740000206C00002000000000154B002BF3
:1002600008BF134B9D46A3F5803A00218B460F46ED
:100270001348144A121A00F045FC0F4B002B00D013
:1002800098470E4B002B00D0984700200021040017
:100290000D000D48002802D00C48AFF3008000F09C
:1002A0000BFC2000290000F0C1F900F0F1FB00BFB9
:1002B0000000080000000120000000000000000015
:1002C00070000020AC0000200000000000000000D2
:1002D000074B4FF0A041185CD1F804350122824051
:1002E00022EA03001340C1F80805C1F80C35704735
:1002F000300B000030B44FF0A04303224FF4003520
:100300004FF480244FF400204FF48011C3F84427A9
:10031000C3F84827C3F84C27C3F85027C3F808553B
:10032000C3F80845C3F80805C3F8081530BC704782
:10033000F0B59B4C237F8FB0002B75D1994AD2F832
:100340000413890548D4974BD3F80423520704D5E6
:10035000D3F80821002A40F0CA80924BD3F81C2120
:10036000C2B1A28AA07D8E4992B282424FF00002B1
:10037000C3F81C2180F0A980D3F81C210692069AAC
:10038000888A8A8A8D6880B20132285C92B28A8219
:10039000C3F81C05834BD3F84421DAB10022C3F81B
:1003A0004421D3F84411A27E04910499002A40F01C
:1003B0008980E27D7A4B6AB10022587ED968DA756D
:1003C00001228DF830000B918DF828200AA893E8BF
:1003D000060090470FB0F0BDD2F824110029B2D02A
:1003E000C2F82431D2F82411A37E07914FF4017191
:1003F0000798C2F808130BB901235360694A022316
:100400008DF82830D2F88034C2F88034E07DE2687C
:100410000D9300238DF83000E375237621680B924D
:1004200063680AA8984798E75E4BD3F82421002A0E
:1004300040F09380D3F8101161B1C3F81021D3F8C4
:10044000101103910399D3F83C15E07DC9B288429D
:1004500000F0AA80534BD3F84421B2B10022C3F874
:100460004421D3F84411E07D019101994C4960B1D8
:10047000D3F83C35C8688DF830300123CA750B902D
:100480008DF828300AA80AC99847464BD3F820218E
:10049000002A9FD00022C3F82021D3F82011A07D8C
:1004A000009100993E49002894D0D3F84C058B6800
:1004B0008DF830008A750B938DF828200AC90AA898
:1004C000984787E701221A6073E7D3F81C31059338
:1004D000059B00283FF45EAF8B688DF830008A756D
:1004E0000B938DF828200AC90AA8984752E7E17DA6
:1004F0002B4A002970D00021C3F80811D3F8081145
:1005000008910899D068517ED3F818354354537E2A
:10051000D17D0133DBB25376627E214B8A427FF478
:100520001CAF1A7E002A6DD19B7E13B91D4B012290
:100530005A601C4AE06863684FF40171C2F80813FE
:10054000627E8DF83020002501220B902168E57530
:100550008DF828200AA89847FFE60022C3F8242136
:10056000D3F82411029102218DF828100299D3F8B2
:100570008014C3F880140D91D3F83C15E368E2753C
:1005800022768DF830100B93216863680AA898478B
:10059000044BD3F84421002A3FF477AF5EE700BF55
:1005A0008C00002000200040217EF1B1D3F80072C1
:1005B000E17527F02001E6682569C3F800120123E0
:1005C0008DF830008DF82830227621680B96E56092
:1005D00063680AA898473DE7C3F80811D3F80821D3
:1005E0000992099AD3F8183596E7E268E175012374
:1005F0008DF830008DF828300B9294E80A000AA894
:10060000984727E7DE685D7E1869DA7501210022C8
:10061000D8601A765A768DF828100B968DF83050DF
:1006200093E806000AA8904797E600BFF8B5FFF7E1
:1006300061FE244F244E254D00242046FFF748FE3E
:100640003A682B4600BF00BF00BF00BF00BF00BF1D
:1006500000BF00BFB2422FD000BF00BF00BF00BF2D
:1006600000BF00BF00BF00BF00BF00BF00BF00BF92
:1006700000BF00BF00BF00BF00BF00BF00BF00BF82
:1006800000BF00BF00BF00BF00BF00BF00BF00BF72
:1006900000BF00BF00BF00BF00BF00BF00BF00BF62
:1006A00000BF00BF00BF00BF00BF00BF00BF00BF52
:1006B00000BF00BF00BF00BF013BC3D1002CBBD1B6
:1006C0000124BAE7000000200024F40040420F009B
:1006D0000649074A074B9B1A03DD043BC858D05014
:1006E000FBDC00F013F8FFF7B9FD0000480B000039
:1006F0000000002070000020FEE7FEE7FEE7FEE7B6
:10070000FEE7FEE7FEE7FEE7FEE7FEE7F0B4AF4BED
:100710001B78062B1BD0AE4AD2F8883043F4700306
:10072000C2F88830BFF34F8FBFF36F8F4FF01023A5
:10073000D3F80022002AC0F27381D3F80432002BD0
:10074000C0F26E81A34BA44A1A60F0BC7047A34B61
:100750001B681907DFD1A24B1B6803F0F002302A97
:1007600000F08E8003F0E003402B00F089809C4B6A
:100770001B6803F0F003302B00F09280984B1B684D
:1007800003F0F002302A6BD003F0E003402B67D077
:10079000934B1B6803F0F003302B00F00681904B65
:1007A0001B6803F0F002302A47D003F0E003402B2F
:1007B00043D08B4B1B6803F0F003302B00F0E78035
:1007C000874B1B6803F0F003302B77D0844B1B68FA
:1007D00003F0F003502B00F08880814B1B6803F07E
:1007E000F002302A18D003F0E003402B14D07C4BE9
:1007F0001B6803F0F002302A03D003F0E003402B23
:1008000089D14FF08042D2F80034DB0783D56FF0F6
:100810000103C2F800347EE7724B734A1B6803F091
:100820004F031360694B1B78062B7FF474AF6B4B3F
:100830001B6819077FF46FAFD9E74FF080430022A0
:10084000C3F80C21C3F81021C3F838255F4B1B787F
:10085000062BE7D1614B1B681E077FF45CAFA8E74E
:10086000624B5A4A1B6812786149C3F34233062A25
:100870000B602FD1594B1B681B077FF44CAF87E7E8
:100880005C4B524A1B6812785B49C3F30423062A67
:100890000B60DBD1514B1B681A073FF468AF3AE796
:1008A0004A4B564A1B7856491160062B7FF433AFEA
:1008B0004A4B1B681A077FF42EAF5FE7514E524C2C
:1008C0005249534B0527012500203F223760256000
:1008D00008601A603D4B1B78062B7FF41CAF3F4B22
:1008E0001B681C077FF417AF70E74FF08052494B2D
:1008F000D2F80414C3F82015D2F80814C3F824154C
:10090000D2F80C14C3F82815D2F81014C3F82C151B
:10091000D2F81414C3F83015D2F81814C3F83415EB
:10092000D2F81C14C3F84015D2F82014C3F84415AB
:10093000D2F82414C3F84815D2F82814C3F84C157B
:10094000D2F82C14C3F85015D2F83014C3F854154B
:10095000D2F83414C3F86015D2F83814C3F864150B
:10096000D2F83C14C3F86815D2F84014C3F86C15DB
:100970001649D2F84424C3F870250B78062B7FF46F
:10098000CAAE164B1B6818077FF4C5AE25E70F4BA0
:10099000214A1B780321062B11607FF4BCAE0F4B5C
:1009A0001B681D077FF4B7AE0AE71C49074BCA68EE
:1009B0001B7822F08072062BCA607FF4ACAE074B26
:1009C0001B681F077FF4A7AEE9E600BFE00F00F049
:1009D00000ED00E0000000200090D003E40F00F0E4
:1009E000E80F00F058020010E40E0040440200102E
:1009F0003C050040240300104035014074C007400E
:100A00000DF0ADBA10560040885600401856004010
:100A10001456004000C00040A0050040F0ED00E08A
:100A2000184B0122C3F80425D3F80024002AFBD078
:100A30004FF0102315221349C3F80022D1F80034D7
:100A4000002BFBD04FF0102315220E49C3F80422CF
:100A5000D1F800240B4B002AFAD00022C3F8042559
:100A6000D3F80024002AFBD0BFF34F8F0649074B71
:100A7000CA6802F4E0621343CB60BFF34F8F00BF3C
:100A8000FDE700BF00E0014000ED00E00400FA05D2
:100A900008B5074B044613B10021AFF30080054BA6
:100AA0001868836A03B19847204600F033F800BF06
:100AB00000000000380B000070B50E4B0E4CE41A1D
:100AC000A41000251E46A54204D056F825309847AC
:100AD0000135F8E700F020F8084C094BE41AA4109F
:100AE00000251E46A54204D056F82530984701350A
:100AF000F8E770BD6400002064000020680000205A
:100B00006400002002440346934202D003F8011B14
:100B1000FAE77047FEE700BFF8B500BFF8BC08BCB5
:100B20009E467047F8B500BFF8BC08BC9E467047AB
:100B30001112131443000000040000200000000004
:080B40001CF7FF7F010000001B
:100B48000090D0030000000000000000000000003A
:100B5800000000000000000000000000000000008D
:100B680000000000340B000000000000000000003E
:100B7800000000000000000000000000000000006D
:100B8800000000000000000000000000000000005D
:100B9800000000000000000000000000000000004D
:100BA8000000000025020000010200000000000013
:04000003000006D122
:00000001FF
